:100000000C945D000C9485000C9485000C94850084
:100010000C9485000C9485000C9485000C9485004C
:100020000C9485000C9485000C9485000C9485003C
:100030000C9485000C9485000C9485000C9485002C
:100040000C94BD010C9485000C9485000C948500E3
:100050000C9485000C9485000C9485000C9485000C
:100060000C9485000C94850000000008000201003B
:100070000003040700000000000000000000000072
:10008000250028002B0000000000240027002A0083
:10009000040404040404040402020202020203032E
:1000A0000303030301020408102040800102040836
:1000B0001020010204081020BA0211241FBECFEF45
:1000C000D8E0DEBFCDBF11E0A0E0B1E0E8EBF6E0A4
:1000D00002C005900D92A038B107D9F721E0A0E841
:1000E000B1E001C01D92A13EB207E1F710E0CDE5FD
:1000F000D0E004C02197FE010E945403CC35D10703
:10010000C9F70E9407020C945A030C94000090E077
:10011000FC01EC55FF4F2491FC01E057FF4F849107
:10012000882399F090E0880F991FFC01EA57FF4F50
:10013000A591B491FC01E458FF4F859194918FB73C
:10014000F894EC91E22BEC938FBF089590E0FC01C2
:10015000E859FF4F3491FC01EC55FF4F2491FC010D
:10016000E057FF4FE491EE2309F43BC0332339F10C
:10017000333091F038F43130A9F0323001F584B5E4
:100180008F7D12C0373091F03830A1F03430B9F49F
:10019000809180008F7D03C0809180008F77809355
:1001A00080000DC084B58F7784BD09C08091B000F8
:1001B0008F7703C08091B0008F7D8093B000F0E016
:1001C000EE0FFF1FE458FF4FA591B4918FB7F8943D
:1001D000EC91611103C020952E2301C02E2B2C938E
:1001E0008FBF08953FB7F894809185019091860163
:1001F000A0918701B091880126B5A89B05C02F3F2B
:1002000019F00196A11DB11D3FBFBA2FA92F982F3C
:100210008827820F911DA11DB11DBC01CD0142E0B7
:10022000660F771F881F991F4A95D1F708952F925F
:100230003F924F925F926F927F928F929F92AF9276
:10024000BF92CF92DF92EF92FF920F931F93CF93C3
:10025000DF9300D0CDB7DEB78C0149832A83660FC8
:10026000771FF801EA5AFF4FE080F180EE0CFF1C87
:10027000F801CF01801B910B8E159F0514F411928C
:10028000F8CF8981F801E60FF71F81838A81808387
:10029000580184E5A80EB11C60E0F50180810E9440
:1002A000A600E00EF11E4801F2E58F0E911C380108
:1002B00080E5680E711CC701801B910B181619068A
:1002C00024F5F701C2907F01F4013080F301208012
:1002D00087E0482E512CD12CB601042C02C0759514
:1002E00067950A94E2F761707727822D0E94A60035
:1002F00061E0832D0E94A60060E0832D0E94A6008D
:10030000F1E04F1A510840F7D6CF61E0F501808146
:100310000F900F90DF91CF911F910F91FF90EF9071
:10032000DF90CF90BF90AF909F908F907F906F9015
:100330005F904F903F902F900C94A6002091DF018A
:100340003091E00112161306BCF488309105A0F438
:10035000603190F4E62FF0E0E050FF4F20812068FC
:10036000FC01E757FE4F208B41E0480F60E070E052
:1003700089E891E00C94170108951F920F920FB62F
:100380000F9211242F933F938F939F93AF93BF931B
:100390008091810190918201A0918301B0918401AB
:1003A0003091800123E0230F2D3720F40196A11D09
:1003B000B11D05C026E8230F0296A11DB11D209393
:1003C00080018093810190938201A0938301B09377
:1003D00084018091850190918601A0918701B0915F
:1003E00088010196A11DB11D80938501909386011E
:1003F000A0938701B0938801BF91AF919F918F9196
:100400003F912F910F900FBE0F901F9018957894E9
:1004100084B5826084BD84B5816084BD85B5826009
:1004200085BD85B5816085BD80916E0081608093BA
:100430006E00109281008091810082608093810023
:100440008091810081608093810080918000816033
:10045000809380008091B10084608093B10080918E
:10046000B00081608093B00080917A0084608093B6
:100470007A0080917A00826080937A0080917A007D
:10048000816080937A0080917A00806880937A00FE
:100490001092C1008091DF019091E00118161906B9
:1004A00044F421E04CE060E070E089E891E00E94D3
:1004B00017018091DF019091E0011816190644F4AC
:1004C0002AE04AE060E070E089E891E00E941701CC
:1004D00090E0E92E90E0F92EC9E06C2F80E090E0EA
:1004E0000E949E01D9E06D2F81E090E00E949E0164
:1004F00015E0612F82E090E00E949E0109E0602FEC
:1005000083E090E00E949E010E94F2002B013C01DA
:1005100084E6882E912CA12CB12C0E94F200DC01E3
:10052000CB0184199509A609B709883E9340A10516
:10053000B10558F021E0821A9108A108B10888EEAF
:10054000480E83E0581E611C711C81149104A104A3
:10055000B10419F7015098F6115058F6D15018F619
:10056000C15008F0BACFE114F10409F4B5CF0E94EC
:100570000000B2CFEF92FF920F931F93CF93DF93C0
:10058000C7E0D0E0D093DA01C093D90186E090E0D3
:100590009093DC018093DB0185E090E09093DE0195
:1005A0008093DD0181E090E09093E0018093DF0192
:1005B00087E00E9487008091DB010E948700809184
:1005C000DD010E94870061E08091DD010E94A600AC
:1005D000D093DA01C093D901E9E9F1E0119281E009
:1005E000E93DF807D9F789E8E82E81E0F82EC0E068
:1005F000D0E08091DF019091E001C817D9070CF09D
:100600004CC020E04FE0BE0189E891E00E94170154
:10061000D7FD0EC08091DF019091E001C817D90786
:100620003CF427E04BE0BE0189E891E00E9417010D
:1006300020E049E0BE0189E891E00E941701D7FD62
:1006400027C08091DF019091E001C817D90794F489
:1006500001E010E0F701E00FF11F178620E0402FC6
:10066000BE0189E891E00E9417010F5F1F4F09301A
:10067000110581F78091DF019091E001C817D9073A
:100680003CF420E04CE0BE0189E891E00E941701B3
:10069000219688E0E80EF11CACCFDF91CF911F913D
:1006A0000F91FF90EF900895EE0FFF1F0590F491CA
:0806B000E02D0994F894FFCF3E
:1006B8007E306D79335B5F707F7B771F0D3D4F47D1
:1006C8000000000000000000000000000000000022
:1006D8000000000000000000000000008001800011
:1006E8007E306D79335B5F707F7B00000000000017
:1006F80000771F0D3D4F4700370000000E00000037
:100708006700000000000000000000000000000872
:1007180000771F0D3D4F4700370000000E00000016
:10072800670000000000000000000000000000005A
:00000001FF
